:020000040000FA
:10000000B02000208D04000095040000970400003B
:10001000990400009B0400009D0400000000000003
:100020000000000000000000000000009F0400002D
:10003000A104000000000000A3040000A5040000CB
:10004000A7040000A7040000A7040000A704000004
:10005000A7040000A704000081050000A704000019
:10006000590C00006D0C0000A7040000A70400005C
:10007000A7040000A7040000A7040000A7040000D4
:10008000A7040000A7040000A7040000A7040000C4
:10009000A7040000A7040000A7040000A7040000B4
:1000A000A7040000A7040000A7040000A7040000A4
:1000B000A7040000A70400000000000000000000EA
:1000C000A7040000A7040000A7040000A704000084
:1000D000A7040000A7040000A7040000000000001F
:1000E0000000000000000000000000000000000010
:1000F0000000000000000000000000000000000000
:1001000000000000000000000000000000000000EF
:1001100000000000000000000000000000000000DF
:10040000DFF80CD000F066F800480047C512000085
:10041000B0200020401E00BF00BF00BF00BF00BFD3
:1004200000BF00BF00BF00BF00BF00BF00BF00BFD4
:1004300000BF00BF00BF00BF00BF00BF00BF00BFC4
:1004400000BF00BF00BF00BF00BF00BF00BF00BFB4
:1004500000BF00BF00BF00BF00BF00BF00BF00BFA4
:1004600000BF00BF00BF00BF00BF00BF00BF00BF94
:1004700000BF00BF00BF00BF00BF00BF00BF00BF84
:1004800000BF00BF00BFC5D17047000006488047CD
:1004900006480047FEE7FEE7FEE7FEE7FEE7FEE769
:1004A000FEE7FEE7FEE7FEE7ED09000001040000BD
:1004B00040EA01039B0703D009E008C9121F08C0E6
:1004C000042AFAD203E011F8013B00F8013B521E66
:1004D000F9D27047064C074D06E0E06840F0010392
:1004E00094E8070098471034AC42F6D3FFF78CFF2E
:1004F000DC1E0000FC1E0000F0B585B015460E465F
:10050000044614221B496846FFF7D2FF194800270A
:1005100004948DF80870184A6946083800F054FDB4
:100520001448083800F014FD144C2770114832228A
:100530000021083800F0EEFB1128F7D020780028C1
:10054000FCD00C4832220121083800F0E3FB08B14E
:1005500000F0B8FB304600F0BAFE0648083800F05C
:10056000B7FC0448083800F003FE284600F0AFFE50
:1005700005B0F0BDAC1E0000BD1A00000000002058
:100580002DE9F84F0025DFF81C91A8464FF480763E
:1005900001242F46304601F021FA38B1D9F804037E
:1005A000204203D0304601F00FFA2543361D640087
:1005B0007F1CB6B2082FEDD34FF4BE74204601F075
:1005C0000DFADFF8E4A030B1204601F0FDF9DAF8C9
:1005D000008045F00045354E15F0FF0F14D001277F
:1005E00000242F420CD009EB8401D1F81005D1F87A
:1005F0001015C0F3042056F82420C1F301419047A0
:100600007F00641C082CECD3002D2CDA0024611E22
:1006100096F84420002750B222F0C005401C22D09A
:10062000012000FA05F919EA010F1CD04FEA921BCC
:10063000284600F0FBFD56F82000009010B9BBF1F1
:10064000030F10D14846BBF1030F00D10443A900AA
:1006500001F1A041D1F8001719EA080FC1F30141D7
:1006600003D0022903D0BDE8F88F0329FBD1BBF1E9
:10067000030F06D1022913D00221284601F096F972
:100680000127009818B1009A594628469047002F34
:10069000E9D0DAF800004045E5D080462146B7E7CA
:1006A0000321EAE7006000401005005050000020E0
:1006B0002DE9F05F64224FF4257511462846FFF7B7
:1006C0001BFFFA2264212846FFF716FFFA22642155
:1006D0002846FFF711FF322264214FF4FF70FFF725
:1006E0000BFFFA2264212846FFF706FF4FF4FA7445
:1006F0002246642140F20230FFF7FEFE4FF4BE7640
:1007000040F20D2264213046FFF7F6FE4FF4AF773A
:100710003A4664214FF4FF70FFF7EEFE3A4664213B
:100720003046FFF7E9FE4FF4A0784FF4E172642100
:100730004046FFF7E1FE4FF4DC79FA226421484697
:10074000FFF7DAFE4FF48C7A4FF4F07B52465021DB
:100750005846FFF7D1FE642211464FF4E170FFF7CF
:10076000CBFEFA2264214FF4D770FFF7C5FE962224
:1007700064213046FFF7C0FE962250212846FFF73D
:10078000BBFE642232217000FFF7B6FEFA2264211C
:100790004FF45770FFF7B0FE642250217800FFF746
:1007A000ABFE4FF4967232217000FFF7A5FEFA22DD
:1007B00050212846FFF7A0FE642250214FF402701A
:1007C000FFF79AFE642250214FF41170FFF794FE58
:1007D0004FF4E17250215846FFF78EFE4FF4C87275
:1007E00064214FF4FF70FFF787FE3A4664213046DC
:1007F000FFF782FE4FF4E17264214046FFF77CFE72
:10080000FA2264214846FFF777FE524650215846A7
:10081000FFF772FE642211464FF4E170FFF76CFEA1
:10082000FA2264214FF4D770FFF766FE9622642106
:100830003046FFF761FE962250212846FFF75CFE06
:10084000642232217000FFF757FEFA2264214FF430
:100850005770FFF751FE642250217800FFF74CFEDD
:100860004FF4967232217000FFF746FEFA225021B3
:100870002846FFF741FE642250214FF40270FFF733
:100880003BFE642250214FF41170FFF735FE4FF408
:10089000E17250215846FFF72FFEFA2264212046CC
:1008A000FFF72AFE322264217000FFF725FE642242
:1008B00011464FF43470FFF71FFE642211464FF4C7
:1008C0002A70FFF719FEFA2296214FF41B70FFF7EA
:1008D00013FEFA22962140F28A20FFF70DFE6422D1
:1008E00011463046FFF708FE642211464FF4D770D8
:1008F000FFF702FEFA2264212046FFF7FDFD642285
:1009000011464FF4D770FFF7F7FD322264212046DD
:10091000FFF7F2FDAA22642140F23A20FFF7ECFD36
:100920004FF4C87264214FF4FF70FFF7E5FD3A46BB
:1009300064213046FFF7E0FD4FF4E1726421404648
:10094000FFF7DAFDFA2264214846FFF7D5FD52464B
:1009500050215846FFF7D0FD642211464FF4E17054
:10096000FFF7CAFDFA2264214FF4D770FFF7C4FDE8
:10097000962264213046FFF7BFFD9622502128467B
:10098000FFF7BAFD642232217000FFF7B5FDFA22AD
:1009900064214FF45770FFF7AFFD642250217800B7
:1009A000FFF7AAFD4FF4967232217000FFF7A4FD05
:1009B000FA2250212846FFF79FFD642250214FF470
:1009C0000270FFF799FD642250214FF41170FFF778
:1009D00093FD4FF4E17250215846FFF78DFDBDE8BD
:1009E000F05F014800F074BAA41E000070B58D4895
:1009F0000023021D0178101D0124062907D1157856
:100A00002D0704D10578C5F30315032D02D006295F
:100A100004D00FE0854E844D75670EE015782D07E4
:100A200008D10578C5F30315032D06D0042D04D095
:100A3000052D02D0062909D010E04FF08055D5F8D9
:100A400044527B4EC5F34235356002E015782D07E0
:100A500004D10578C5F30315032D02D0062906D06D
:100A600011E0744D2E6826F080762E600EE0157829
:100A70002D0708D10578C5F30315032D06D0042DE5
:100A800004D0052D02D006290AD011E04FF0804590
:100A9000C5F80C31C5F81031654D2D1F2B6002E0F3
:100AA00015782D0704D10578C5F30315032D02D061
:100AB000062905D00CE05E4A0321643211600AE089
:100AC00015782D0704D10578C5F30315032D02D041
:100AD00006290DD06AE0584A05211160564978313F
:100AE0000C60554908310B603F21121D116002E076
:100AF000117809075AD10078C0F30310052855D1A1
:100B00004E4800684E4908604C48001D0068091DA9
:100B100008604A4808300068091D086047480C30E2
:100B20000068091D0860454810300068091D08600C
:100B3000424814300068091D0860404818300068B9
:100B40003F49203108603D481C300068091D08609D
:100B50003A4820300068091D086038482430006891
:100B6000091D0860354828300068091D08603348B1
:100B70002C300068091D086030483030006830496A
:100B8000403108602D4834300068091D08602B484A
:100B900038300068091D086028483C300068091D8D
:100BA0000860264840300068091D086021487438F4
:100BB000016841F470010160BFF34F8FBFF36F8F85
:100BC0004FF01021D1F80002002803DBD1F8040215
:100BD000002822DA1B4A14601B480468002CFCD051
:100BE0001524C1F800420568002DFCD0C1F804426C
:100BF00001680029FCD0136001680029FCD0BFF314
:100C00004F8F0C48F0380168104A01F4E06111433D
:100C10000160BFF34F8F00BFFDE70E490C4808602D
:100C200070BD0000E00F00F00DF0ADBA00C007404D
:100C30003C050040FCED00E01056004004040010AC
:100C400020C5004004E5014000E401400400FA052D
:100C50000090D0032800002004220249024800F03E
:100C6000EDBA0000980000200080004004220249F4
:100C7000024800F0E3BA0000A40000200090004009
:100C800002E008C8121F08C1002AFAD17047704755
:100C9000002001E001C1121F002AFBD170470000B3
:100CA000BFF34F8F05480168054A01F4E061114325
:100CB0000160BFF34F8F00BFFDE700000CED00E0C7
:100CC0000400FA050EB500210091CDE901106A4635
:100CD00044F20100FFF7E4FF0EBD000030B54268AA
:100CE0000B4C1379E15C0120FF290ED0FE290DD0B9
:100CF00012684FF4A86505EB81015158E21D52F8C6
:100D00002320914202D1FF20E054002030BD00009A
:100D10000D00002003681B8B9BB253436422B3FB7E
:100D2000F2F292B2AFF300802DE9F041884604461A
:100D3000056801EB480005EB800795F8230016468F
:100D4000022802D00820BDE8F0817868B04205D1C1
:100D5000E969E1B36068007988473EE02046FFF723
:100D6000BDFF08B11120EEE761681D4AFE20097938
:100D70005054796811B1A86981420FD316B1A8699E
:100D8000B04205D832464146204600F0C9FE13E085
:100D900032464146204600F0FBFE0DE00EB1B04267
:100DA00005D832464146204600F07EFF04E0324638
:100DB0004146204601F000F82068C06938B16068FB
:100DC000074A02210079921C02EB400200E004E095
:100DD00002F80810606800F014FD0020B3E700007E
:100DE0000D0000202DE9F84F05688A46064601EB04
:100DF0004A0795F823009946904605EB870410B101
:100E00000820BDE8F88F4FF0000B2E48C4F804B05E
:100E100084F80A90006800900A21306801EB87018D
:100E2000405C48B15FF000008DF801006946104653
:100E300000F0AAFAA8B901E00120F5E745F82780FB
:100E4000012707FA08F0B9F1000F01D01E4901E0AF
:100E50001D49091F086000256019083000F05CFB7F
:100E600008B10420CDE76D1CEDB2022DF4D3207A39
:100E700000F0A0FB607A00F09DFB206800F0E0FA33
:100E800005465146706800F0ADFC0146207A2A46BE
:100E900000F072FB206800F0D3FA0546022170686A
:100EA00000F0A0FC0146607A2A4600F065FBE7727C
:100EB0007168064A097902EB410202F80AB0002083
:100EC0009FE70000D01E00000C0500500F0000201E
:100ED0002DE9F0410646D6E9007000F0A3FC02219E
:100EE000706800F087FC0024381990F8200000F0AA
:100EF00061FB641CE4B2022CF6D300254FF001081C
:100F000005EB450007EB8004E17AA1B10A223168C4
:100F100002EB8000085C0028207808FA00F112D06B
:100F20000A480160206800F095FA207A00F042FB40
:100F3000607A00F03FFB6D1CEDB2022DE0D387F824
:100F40002380BDE8F0810148001FEAE70C0500504E
:100F50002DE9F0470025DFF86C9007680446A846A5
:100F6000626805EB450007EB8006137909EB430245
:100F700002F80580F17A71B10A22216802EB800043
:100F8000085CE0B10021306800F090FA306800F0B1
:100F900073FAC6F804806D1C022DE1D36168094A1A
:100FA000FF200979921E5054606800F006FC6068CA
:100FB00000F046FC022087F82300BDE8F0870121FD
:100FC000E1E700000F0000202DE9F74F84B00E008C
:100FD000054607D02C6894F8230028B1082007B0F4
:100FE000BDE8F08F0B20FAE700F0D4FB18B185289C
:100FF00001D00420F3E700F0BDF920B900F090F92A
:1010000008B10320EBE75648DFF858A1002200782A
:101010004FF0010BC0F30310032823D08AF800B06F
:10102000FF2184F8201084F8211084F82210002079
:1010300089464FF0FF3C00BF00EB400104EB810705
:10104000401CFA7287F8089087F80990C0B244F8FB
:1010500021C00228F0D30027E019203000F05CFA0C
:1010600060B902E08AF80020DAE77F1CFFB2022FA5
:10107000F2D304F1220000F025FB18B1284600F05D
:10108000CFFCB6E75FF0000756F82720501C12D0BF
:10109000F0193946037A2846FFF7A4FE5FEA0008F4
:1010A00004D0284600F0BCFC404698E700223946B0
:1010B0002846FFF739FE7F1CFFB2022FE4D3002041
:1010C00009224FF48053316901E04908401C9942DC
:1010D00001D39042F9D39AF8001009B100B9012068
:1010E000214AD2E90112CDE901128DF804006868A5
:1010F0001E4A01A900790290686800F0C5FB07004C
:1011000004D0284600F08CFC384668E768683169EE
:101110000068D0F810050E01C640A661686800F0AE
:101120004CFBCDF800B05F460423324602216868CC
:1011300000F094FB0221686800F05CFB0698E06117
:1011400068680849074A00791031521C41F820505C
:101150006968097902F8019084F8237000203EE75D
:10116000E80F00F00C000020D01E0000C91A00009B
:1011700070B50468054694F82300022801D050B1E8
:1011800002E02846FFF7A4FE284600F049FC0020B4
:1011900084F8230070BD082070BD00F003B800F093
:1011A00009B8000072B602480168491C0160704726
:1011B0002400002003490868401E086000D162B680
:1011C000704700002400002005494FF0FF32082836
:1011D00041F8202002D3084480F83C2070470000EA
:1011E00050000020F0B54FF0FF3512B10023082663
:1011F00001E0082309260C4C05E000BF54F82370D9
:101200007F1C04D05B1CB342F8D32846F0BD2618DF
:101210005DB286F8245044F82310002AF5D1E11875
:1012200081F83C00F1E7000050000020024908442A
:1012300090F9240070470000500000202DE9F04193
:1012400000251646884604462F4612E04FF4A0704B
:1012500000EB85004FF480312258A9403AB1D4F810
:1012600004230A4203D02750D8E9002190476D1C7F
:10127000EDB2B542EAD3BDE8F08100000121814022
:1012800003484068014201D00120704700207047A8
:10129000040000200121814003484078014201D030
:1012A0000120704700207047040000200121814088
:1012B000880600D00120704701218140080300D03A
:1012C0000120704710B5FFF7F3F9002010BD31B5CC
:1012D00040F2E73404E0401E00902046FFF79AF801
:1012E00000980028F7D138BD4907090E002806DA12
:1012F00000F00F0202F1E02282F8141D03E000F179
:10130000E02282F8001400F01F0201219140400900
:10131000800000F1E020C0F88012C0F80011704792
:1013200070B5124D95F8450008B1082070BD002039
:10133000411E2A18401CC0B282F824102028F8D37D
:1013400000242046FFF740FF641CE4B2092CF8D3C8
:1013500006210846FFF7C8FF05494FF00040C1F8D5
:101360000403012085F84500002070BD50000020D6
:1013700000600040034890F84500002800D001209C
:1013800070470000500000202DE9FC410446284829
:101390000D462044002690F92410491C01D008264F
:1013A0003FE0A978002751B3012200212046FFF732
:1013B00019FF411C21D083001E482A7818446978FF
:1013C000D0F81035DFF870C003EA0C03C0F8103510
:1013D000D0F810354FF4F85C0CEA042C43EA0C0307
:1013E0004FF4403C0CEA02424FF4801C0CEA0151DD
:1013F0000A431343C0F8103504E0042611E0FE212F
:1014000080F8241069780120A04001290CD00B49F4
:10141000086001222046009700231146019700F042
:10142000ABFA3046BDE8FC810449091FF0E7000033
:101430005000002000600040FFE0ECFF0C05005071
:1014400010B5FFF7F3FE0249800601EB106010BDF6
:10145000006000400649084490F9240081000548D6
:101460000844D0F8101521F00301C0F8101570479A
:1014700050000020006000400A49084490F9240010
:10148000810009480144D1F8100540F0030040F400
:10149000F852C1F8102501F5A26100BF00BF00BFDE
:1014A00008607047500000200060004001B1012139
:1014B000064A104490F92400820005481044D0F8F0
:1014C000102561F31452C0F8102570475000002019
:1014D0000060004010B5044600F088FA70B1204664
:1014E000FFF7A4FEC0B2FFF76FFE2046FFF79EFE97
:1014F000074A002102EB8000C0F810150549FF20C3
:10150000214481F824002046BDE8104000F045BA8F
:1015100000600040500000202DE9F0470427144EE1
:10152000814600244FF001080020FFF736FE08FA3C
:1015300004F5354203D02046FFF7A0FE58B1002045
:10154000FFF72DFE27B104F10104AE43E4B2EBD165
:101550003846BDE8F087074908FA04F000274A68D2
:101560001043486089F800403846FFF718FEEFE75F
:10157000FFFF0F000400002070B514460D00064662
:1015800010D07CB1FFF798FE70B13046FFF776FEC1
:1015900060B1074800EBC600C0F81055C0F814450C
:1015A000002070BD0E2070BD072070BD082070BDEA
:1015B00000F0014070B504460125A540FFF77CFE10
:1015C00018B12046FFF75AFE18B103480560002005
:1015D00070BD082070BD000008F5014070B50446DC
:1015E0000125A540FFF768FE18B12046FFF746FE2B
:1015F00018B103480560002070BD082070BD0000D0
:1016000004F5014070B50546FFF756FE78B109486C
:101610000124AC4004600020FFF7BFFD064841688C
:10162000A14341600020FFF7BAFD002070BD0720F4
:1016300070BD000008F501400400002070B50546AB
:101640000C460846FFF732FE98B12046FFF722FE0F
:1016500088B10020FFF7A1FD084800EB8400D0F816
:1016600000182943C0F800180020FFF798FD00205B
:1016700070BD072070BD082070BD000000F0014063
:1016800070B505460C460846FFF710FE98B1204697
:10169000FFF700FE88B10020FFF77FFD084800EB50
:1016A0008400D0F80018A943C0F800180020FFF704
:1016B00076FD002070BD072070BD082070BD0000C1
:1016C00000F001402DE9F04704273F268146002421
:1016D0004FF001080020FFF760FD08FA04F53542DD
:1016E00003D02046FFF7D6FD58B10020FFF757FD85
:1016F00027B104F10104AE43E4B2EBD13846BDE8B2
:10170000F087064808FA04F1002742781143417037
:1017100089F800403846FFF742FDEFE7040000205B
:1017200010B50446FFF7C2FD48B12046FFF7B2FDF1
:1017300038B1054A012042F83400002010BD0720CE
:1017400010BD082010BD000000F0014070B5044637
:10175000FFF7ACFDA8B12046FFF79CFD98B10B49FF
:10176000012501EBC40045600020FFF716FD084885
:10177000A5404178A94341700020FFF710FD0020EB
:1017800070BD072070BD082070BD000000F0014052
:10179000040000200448017809B185207047012128
:1017A0000170002070470000040000200268402003
:1017B00000EB8100C0B21044704700680121C16095
:1017C000704730B54FF4803405688C4013B1C5F8CC
:1017D000044301E0C5F80843006800EB8100C0F84D
:1017E000402530BD02684FF4A07000EB810080B24C
:1017F0001044704702684FF480308840C2F80803F4
:10180000704710B54FF4A07202EB8102036892B2E8
:1018100000249C5002684FF480308840C2F80403D2
:1018200010BD00000268012111610079034A00EB3C
:10183000400002EB80000172704700009800002019
:10184000016801220A600079034A00EB400002EBC4
:10185000800002210172704798000020F0B40468F3
:10186000049E40F20115D4F800728D40AF43C4F8D5
:1018700000720468D4F800521D43C4F80052334685
:10188000F0BCFFF79EBF00002DE9F041044600794F
:101890000D46234B00EB400103EB8106317A11B179
:1018A0000820BDE8F0810AB115B104E00720F8E78F
:1018B0001C4901EBC0053260686870600020034677
:1018C0004FF4A07706E000BF226807EB8001535079
:1018D000401CC0B261798142F6D82068E978000BDB
:1018E00040B2FFF701FD20686978D0F8042561F364
:1018F0000102C0F804252068A978D0F8082561F312
:101900000102C0F8082520682978D0F8102561F375
:101910000302C0F81025012030720020C1E700004A
:1019200098000020C01E000010B503460068000BA0
:1019300041B201F01F02012090404909890001F1E4
:10194000E021C1F8800119684FF0FF30D1F8002282
:101950000024C1F800421968C1F808031846FFF7CF
:1019600061FF1879034900EB400001EB800004722D
:1019700010BD00009800002030B541EA4201DDE9C9
:10198000034541EA8301800041EA042100F1A040BF
:1019900041EA0541C0F8001730BD1CB50021009197
:1019A0000B4601220191FFF7E7FF1CBD800000F507
:1019B000E06000F1A040026822F440320260026858
:1019C00042EA014101607047034908B5084400211B
:1019D00001600068009008BD006000400249405866
:1019E000012800D0002070470060004004490844EE
:1019F00090F92400082801D2012070470020704788
:101A00005000002010B5006801EB410100EB81049B
:101A1000207AFFF7CFFD607ABDE81040FFF7CABD1E
:101A20002DE9F05F056883460024281990F820000E
:101A3000FF2801D0FFF7E6FD641CE4B2022CF4D3CA
:101A400095F82200FF2801D0FFF780FE002606EB64
:101A5000460800244FF0FF0A05EB880707EB04094E
:101A600099F80800FF2803D0FFF7CCFD89F808A0FB
:101A7000641CE4B2022CF1D355F82800411C05D0B7
:101A8000FFF728FD4FF0FF3145F828100020761CA5
:101A9000F6B2F872022EDAD3DBF80400BDE8F05F8C
:101AA000FFF742BF10B5046814F8200FFFF782FD5E
:101AB0006078BDE81040FFF77DBD000001490120BE
:101AC00008707047000000202DE9F04113480D46D2
:101AD0000127002400F10D0800EB4506305D28B118
:101AE000305D401E3055305D70B10027641CE4B29B
:101AF000022CF3D3002F0ED058F8250002214068A5
:101B0000BDE8F041FFF776BE58F825000068C169CE
:101B100028468847EAE7BDE8F08100000F00002072
:101B20002DE9F0470F46D0F8008001EB4709154634
:101B3000044608EB8906FFF7B5FF39462046FFF754
:101B400061FF0A2101EB890045B1D8F81810A942BC
:101B50000DD88DB22168085C18B104E02168085CDA
:101B600008B1002100E001213068FFF79FFC00234D
:101B70002A4639466068FFF724FE75606168034AAB
:101B8000FF2009795054BDE8F08700000D000020C7
:101B90002DE9F04706688846044601EB480006EB4D
:101BA0008007924696F822502046FFF77BFF414679
:101BB0002046FFF727FF0023524641466068FFF7A3
:101BC00000FE29464FF0FF30FFF75AFD3A7A012117
:101BD00001FA02F07A7A914008432946FFF72EFD78
:101BE0002F48DFF8C09000EBC50579686068A1B3A5
:101BF0000221FFF7F7FD014696F820002A46FFF77D
:101C0000BBFC0023012203216068FFF7DAFD606856
:101C10000021027949F8221003216068FFF7C6FD10
:101C200005460221D4F80400FFF7DCFD014696F8D2
:101C300021002A46FFF7A0FC16F8200FFFF7CEFC84
:101C40007078FFF7CBFCC7F804A06168154A032041
:101C50000979D21F5054BDE8F087FFE74146FFF7EE
:101C6000C1FD014696F820002A46FFF785FC0023B7
:101C70001A4603216068FFF7A4FD60684FF4A8636B
:101C800003EB880102685158027949F822100321B8
:101C90006068FFF78BFD054641466068C4E70000B9
:101CA00000F00140140000202DE9F0470568894646
:101CB000044601EB490005EB8007904695F8226049
:101CC0002046FFF7EFFE31464FF0FF30FFF7D8FC1C
:101CD0003A7A012101FA02F07A7A914008433146BA
:101CE000FFF7ACFC3248DFF8CCA0B8F1000F3AD0D7
:101CF000298B00EBC6061FFA81F802216068FFF706
:101D000071FD014695F820003246FFF735FC0023AF
:101D1000012203216068FFF754FD60680021027909
:101D20004AF8221003216068FFF740FD06460221B1
:101D3000D4F80400FFF756FD014695F8210032461D
:101D4000FFF71AFC15F8200FFFF748FC6878FFF73B
:101D500045FCC7F804806168164A03200979D21F40
:101D60005054BDE8F08700EBC60649466068FFF7AF
:101D700039FD014695F820003246FFF7FDFB0023B0
:101D80001A4603216068FFF71CFD60684FF4A863E2
:101D900003EB89010268515802794AF822100321A5
:101DA0006068FFF703FD064649466068C2E7000029
:101DB00004F00140140000202DE9F05F0568894619
:101DC000044601EB490005EB800795F82260904638
:101DD00020462035FFF766FE31464FF0FF30FFF713
:101DE0004FFC29784FF0010A0AFA01F269780AFAE1
:101DF00001F010433146FFF721FC49466068FFF7C8
:101E0000D5FC834603216068FFF7ECFC014615F81A
:101E100020095A46FFF7B0FB60680068D0F810054B
:101E20001D49C0B20978884201D1012100E000219A
:101E300001EB0800796888420ED23868FFF700FB92
:101E4000824603216068FFF7CDFC014695F821002A
:101E50005246FFF791FB06E095F8212031460AFA39
:101E600002F0FFF70DFCC7F804800023424603216F
:101E70006068FFF7A6FC3046FFF752FC6168064A2F
:101E80000979083242F821806168D21F097902F885
:101E90000190BDE8F09F00000C0000200090004081
:101EA000010400002C0000209C1E00000C0000001B
:101EB000FFFFFFFF00000000010000000000000025
:101EC0000000030600000000000000060000000003
:101ED000030001000000000600000000FC1E0000DE
:101EE000000000202C000000800C0000281F0000D3
:101EF0002C00002084200000900C00000000000056
:101F000000000000000000000000000000000000D1
:101F100000000000000000000000000000000000C1
:081F2000000000000090D00356
:0400000500000401F2
:00000001FF
